:100000000C9469000C9491000C9491000C94910054
:100010000C9491000C9491000C9491000C9491001C
:100020000C9491000C9491000C9491000C9491000C
:100030000C9491000C9491000C9491000C949100FC
:100040000C949A030C9491000C949C060C94CE068C
:100050000C9491000C9491000C9491000C949100DC
:100060000C9491000C949100000000090003020020
:10007000000405080000000000000000000000016E
:10008000020408102040800102040810200102042C
:100090000810204080400404040404040404020204
:1000A000020202020303030303030202030000002F
:1000B0000023002600290000000000250028002B56
:1000C0000000000000240027002A00006803FE064C
:1000D0007B0311241FBECFEFD8E0DEBFCDBF11E000
:1000E000A0E0B1E0E2E6F9E102C005900D92A23293
:1000F000B107D9F721E0A2E2B1E001C01D92AA3E0A
:10010000B207E1F710E0C8E6D0E004C02197FE0195
:100110000E94240AC636D107C9F70E9495080C949C
:10012000A40C0C940000CF92DF92EF92FF920F93F9
:100130001F93E82FF92F05C001501109210931093A
:1001400061F1908196239417B9F305C0015011090C
:100150002109310911F1908196239413F7CFC12C15
:10016000D12CE12CF12C0AC08FEFC81AD80AE80A6A
:10017000F80A0C151D052E053F0579F080818623B0
:10018000841791F36C2D7D2D8E2D9F2D1F910F9136
:10019000FF90EF90DF90CF90089560E070E080E0F6
:1001A00090E01F910F91FF90EF90DF90CF90089516
:1001B000E4E2F1E081E090E0208131812C323140B5
:1001C0001CF09183808302C011821082329621E05C
:1001D000E033F20789F70895E4E2F1E040815181CC
:1001E00062EE64039001659F300D112442815381BA
:1001F0006CEE6403C001659F900D1124820F931F64
:100200004481558166EF64039001659F300D112490
:10021000820F931F468157816AE0649F9001659F1A
:10022000300D1124820F931F4085518564E1649F36
:100230009001659F300D1124820F931F42855385D5
:100240006EE1649F9001659F300D1124820F931F12
:100250000895CF93DF939C0180912801909129010B
:10026000C0913601D0913701892B51F480912A0138
:1002700090912B01892B21F42115310509F49E0160
:10028000CE01820F931F97FD01969595879540911A
:10029000080150910901849FF001859FF00D949F02
:1002A000F00D11248091300190913101E80FF91F78
:1002B000F0933101E093300160910C0170910D01D8
:1002C00081E090E00E94DA096E9FA0016F9F500DBF
:1002D0007E9F500D1124420F531FF901EC1BFD0BA3
:1002E00060910A0170910B01E69FC001E79F900D9C
:1002F000F69F900D1124480F591F609132017091A3
:100300003301469FC001479F900D569F900D1124C9
:100310006AE070E00E94DA0970933501609334015D
:100320003093370120933601DF91CF91089580916A
:100330002201909123010D978CF1809134019091CD
:10034000350160910601709107019C0197FF04C07F
:1003500022273327281B390B261737079CF497FFD2
:1003600003C0680F791F12C085E00E944B046091A2
:100370000601709107018091340190913501681B4D
:10038000790B13C097FF0CC060E070E085E00E941D
:100390004B04609106017091070107C060E070E0B6
:1003A00085E00E944B0460E070E086E00C944B0412
:1003B00061E083E00E940F058AE090E00E94E40380
:1003C00060E083E00E940F0520ED37E040E050E060
:1003D00061E082E00E943F056115710511F46FE054
:1003E00077E277FF02C06F5F7F4F75956795072EA5
:1003F000000C880B990B0E944E092DEC3CEC48EE4A
:1004000051E40E94A4080E941609CB01089526E039
:1004100040E855E260E070E088E491E00E94370631
:1004200085B5887F846085BD61E083E00E94D30448
:1004300060E082E00E94D30461E085E00E94D30482
:1004400061E086E00E94D30460E08EE00E94D30465
:1004500060E08FE00E94D30460E080E10E94D3045A
:1004600060E081E10E94D30460E082E10E94D30455
:1004700060E083E10E94D30461E087E00E94D3043E
:1004800061E088E00E94D30461E089E00E94D30427
:1004900061E08AE00E94D30460E084E00E94D3041B
:1004A00060E08CE00E94D30460E085E00E940F05CC
:1004B00060E086E00E940F0560E087E00E940F0583
:1004C00061E088E00E940F0560E089E00E940F056E
:1004D00061E08AE00C940F05CF93DF9300D000D049
:1004E00000D0CDB7DEB78EE00E942A04909325019C
:1004F000809324018FE00E942A0490932F0180931F
:100500002E0182E10E942A04909329018093280100
:1005100081E10E942A0490932B0180932A0180E1BB
:100520000E942A0490932D0180932C0183E10E9464
:100530002A0490932701809326010E94D8000E94EC
:10054000EC000E9429010E94D8019093230180931E
:10055000220180910E01882319F00E94970108C0A2
:1005600060E085E00E940F0560E086E00E940F05D4
:1005700080913801882309F4A2C060E070E089E32B
:1005800091E00E943108FC0180818F3621F481E0E6
:1005900080930E018CC060E070E089E391E00E94DE
:1005A0003108FC018081863619F410920E017FC05B
:1005B00060E070E089E391E00E943108FC018081F5
:1005C0008B36A9F420913D0130913E0142E050E08C
:1005D00069E371E0CE0101960E944308CE010196C5
:1005E0000E94890870933301609332015CC060E01F
:1005F00070E089E391E00E943108FC018081893636
:10060000A9F420913D0130913E0142E050E069E3C0
:1006100071E0CE0101960E944308CE0101960E942E
:10062000890870930D0160930C013DC060E070E09B
:1006300089E391E00E943108FC0180818436A9F4AD
:1006400020913D0130913E0142E050E069E371E0CC
:10065000CE0101960E944308CE0101960E948908AE
:1006600070930B0160930A011EC060E070E089E3A3
:1006700091E00E943108FC0180818637C1F420910D
:100680003D0130913E0142E050E069E371E0CE016E
:1006900001960E944308CE0101960E94890870933A
:1006A000070160930601CE0101960E945607109241
:1006B000380160E171E089E391E00E94D907269654
:1006C0000FB6F894DEBF0FBECDBFDF91CF91089576
:1006D00060E171E089E391E00E94C4078091060126
:1006E0009091070163E070E00E94DA097093330192
:1006F00060933201089589E391E00C945607CF93FB
:10070000DF93D1E088E491E00E947105892B79F0B4
:1007100088E491E00E948B05C82F682F89E391E05F
:100720000E941E08CA3071F7D0933801EBCFDF91D9
:10073000CF9108951F920F920FB60F9211242F930D
:100740003F938F939F93AF93BF938091400190917C
:100750004101A0914201B091430130913F0123E05A
:10076000230F2D3720F40196A11DB11D05C026E8E9
:10077000230F0296A11DB11D20933F0180934001DC
:1007800090934101A0934201B093430180914401B1
:1007900090914501A0914601B09147010196A11D9C
:1007A000B11D8093440190934501A0934601B093FD
:1007B0004701BF91AF919F918F913F912F910F90E2
:1007C0000FBE0F901F9018958230910538F0880F5A
:1007D000991F880F991F05970197F1F7089578944D
:1007E00084B5826084BD84B5816084BD85B5826036
:1007F00085BD85B5816085BDEEE6F0E080818160D4
:100800008083E1E8F0E010828081826080838081D3
:1008100081608083E0E8F0E0808181608083E1EBAB
:10082000F0E0808184608083E0EBF0E08081816093
:100830008083EAE7F0E08081846080838081826049
:100840008083808181608083808180688083109232
:10085000C1000895883028F08E3010F08E5001C00D
:100860008FEF877020910F0190E4299F9001112450
:10087000822B80937C0080917A00806480937A0040
:1008800080917A0086FDFCCF8091780020917900DC
:1008900090E0922B08951F93CF93DF93182FEB01D5
:1008A00061E00E94D304209711F460E004C0CF3FC0
:1008B000D10539F461E0812FDF91CF911F910C9424
:1008C0000F05E12FF0E0E859FF4FE491E430F9F033
:1008D00048F4E230B9F0E330A1F584B5806284BD1C
:1008E000C8BD34C0E830E9F0E93019F1E53049F528
:1008F00080918000806280938000D0938B00C093B1
:100900008A0024C084B5806884BDC7BD1FC08091A3
:100910008000806880938000D0938900C093880015
:1009200015C08091B00080688093B000C093B30080
:100930000DC08091B00080628093B000C093B4007D
:1009400005C0C038D1050CF0B5CFAFCFDF91CF9146
:100950001F910895843081F028F4823099F083301B
:10096000A1F008958830A9F08930B9F08530D1F42C
:10097000809180008F7D03C0809180008F7780936D
:100980008000089584B58F7702C084B58F7D84BDC3
:1009900008958091B0008F7703C08091B0008F7D63
:1009A0008093B0000895CF93DF9390E0FC01E1586D
:1009B000FF4F2491FC01EA56FF4F8491882361F197
:1009C00090E0880F991FFC01EF53FF4FC591D49120
:1009D000FC01E954FF4FA591B491611109C09FB783
:1009E000F8948881209582238883EC912E230BC074
:1009F000623061F49FB7F8943881822F8095832309
:100A00008883EC912E2B2C939FBF06C08FB7F89450
:100A1000E8812E2B28838FBFDF91CF9108951F93FC
:100A2000CF93DF93282F30E0F901E859FF4F8491ED
:100A3000F901E158FF4FD491F901EA56FF4FC491F3
:100A4000CC23C9F0162F81110E94AA04EC2FF0E0EC
:100A5000EE0FFF1FE954FF4FA591B4918FB7F894A3
:100A6000111105C09C91ED2FE095E92302C0EC9196
:100A7000ED2BEC938FBFDF91CF911F9108950F93D2
:100A80001F9390E0FC01E158FF4F7491FC01EA567E
:100A9000FF4FE491662311F0672F01C060E0F0E0A2
:100AA000EE0FFF1FE355FF4F8591949189019A0145
:100AB0003F70462F672F0E949300611571058105D5
:100AC000910549F0DC01CB010196A11DB11DBC01CE
:100AD000CD019F7003C060E070E0CB011F910F91CA
:100AE0000895FC01918D228D892F90E0805C9F4FAD
:100AF000821B91098F7399270895FC01918D828D36
:100B0000981731F0828DE80FF11D858D90E00895E2
:100B10008FEF9FEF0895FC01918D828D981761F002
:100B2000828DDF01A80FB11D5D968C91928D9F5F24
:100B30009F73928F90E008958FEF9FEF089584EF59
:100B400096E0892B49F08FE793E0892B29F00E94EA
:100B5000F40681110C947F030895FC01848DDF015C
:100B6000A80FB11DA35ABF4F2C91848D90E0019620
:100B70008F739927848FA689B7892C93A089B1890F
:100B80008C9180648C93938D848D981306C0028819
:100B9000F389E02D80818F7D80830895CF93DF934B
:100BA000EC01888D8823C9F0EA89FB89808185FD65
:100BB00005C0A889B9898C9186FD0FC00FB607FCC6
:100BC000F5CF808185FFF2CFA889B9898C9185FF07
:100BD000EDCFCE010E94AD05E7CFDF91CF91089513
:100BE000EF92FF920F931F93CF93DF93EC0181E07D
:100BF000888F9B8D8C8D981305C0E889F989808139
:100C000085FD24C0F62E0B8D10E00F5F1F4F0F7374
:100C10001127E02E8C8DE8120CC00FB607FCFACF1E
:100C2000E889F989808185FFF5CFCE010E94AD0565
:100C3000F1CF8B8DFE01E80FF11DE35AFF4FF082DB
:100C40000B8FEA89FB898081806207C0EE89FF896A
:100C50006083E889F98980818064808381E090E005
:100C6000DF91CF911F910F91FF90EF900895CF9258
:100C7000DF92EF92FF921F93CF93DF93EC016A0113
:100C80007B01122FE889F98982E080834115514E5A
:100C900061057105B1F060E079E08DE390E0A701B6
:100CA00096010E94EE09DA01C9010197A109B10973
:100CB000B695A79597958795AC01411580E15807A2
:100CC000A8F0E889F989108260E874E88EE190E084
:100CD000A70196010E94EE09BA01A90141505109EC
:100CE000610971097695679557954795EC85FD855E
:100CF0005083EE85FF854083188EEC89FD89108333
:100D0000EA89FB89808180618083EA89FB8980810F
:100D100088608083EA89FB89808180688083EA8992
:100D2000FB8980818F7D8083DF91CF911F91FF9020
:100D3000EF90DF90CF9008951F920F920FB60F9211
:100D400011242F938F939F93EF93FF93E09158017A
:100D5000F09159018081E0915E01F0915F0182FD87
:100D600012C09081809161018F5F8F732091620129
:100D7000821751F0E0916101F0E0E85BFE4F958F42
:100D80008093610101C08081FF91EF919F918F91CC
:100D90002F910F900FBE0F901F9018951F920F92DA
:100DA0000FB60F9211242F933F934F935F936F933E
:100DB0007F938F939F93AF93BF93EF93FF9388E4B9
:100DC00091E00E94AD05FF91EF91BF91AF919F918E
:100DD0008F917F916F915F914F913F912F910F90E4
:100DE0000FBE0F901F90189588E491E00E94710546
:100DF00021E0892B09F420E0822F0895E8E4F1E056
:100E00001382128288EE93E0A0E0B0E084839583A1
:100E1000A683B78385E191E09183808385EC90E0A0
:100E20009587848784EC90E09787868780EC90E0B4
:100E3000918B808B81EC90E0938B828B82EC90E0A5
:100E4000958B848B86EC90E0978B868B118E128E1F
:100E5000138E148E0895CF92DF92EF92FF920F932C
:100E60001F93CF93DF936C017A018B01C0E0D0E038
:100E7000CE15DF0589F0D8016D918D01D601ED9178
:100E8000FC910190F081E02DC6010995892B11F4A8
:100E90007E0102C02196ECCFC701DF91CF911F9157
:100EA0000F91FF90EF90DF90CF900895FC0180812B
:100EB00091810C94BF0ACF93DF93EC0188819981D3
:100EC000009711F00E94BF0A198218821D821C82AD
:100ED0001B821A82DF91CF9108950F931F93CF93B6
:100EE000DF93EC018B016F5F7F4F888199810E94B6
:100EF000570B009731F0998388831B830A8381E025
:100F000001C080E0DF91CF911F910F910895CF93A1
:100F1000DF93EC0188819981892B29F08A819B815B
:100F20008617970760F4CE010E946D07882341F071
:100F30008C819D81892B19F4E881F981108281E0EF
:100F4000DF91CF910895EF92FF920F931F93CF936C
:100F5000DF93EC017B018A01BA010E9487078111AE
:100F600004C0CE010E945B0707C01D830C83B7013C
:100F7000888199810E94510CCE01DF91CF911F9100
:100F80000F91FF90EF900895FC011182108213825F
:100F90001282158214826115710551F0FB010190D6
:100FA0000020E9F73197AF01461B570B0C94A307BC
:100FB0000895CF93DF93EC016115710559F0FB01A2
:100FC00001900020E9F73197AF01461B570B0E94B3
:100FD000A30702C00E945B07CE01DF91CF91089565
:100FE000EF92FF920F931F93CF93DF93FC01248125
:100FF00035816115710511F480E019C04115510565
:10100000A9F07B01EC018A01020F131FB8010E94B5
:101010008707882389F3288139818C819D81B701D5
:10102000820F931F0E94510C1D830C8381E0DF917E
:10103000CF911F910F91FF90EF900895CF93DF9381
:1010400000D0CDB7DEB769831A8241E050E0BE011F
:101050006F5F7F4F0E94F0070F900F90DF91CF914D
:101060000895FC01248135816217730720F4808183
:101070009181009729F41092E50185EE91E00895A1
:10108000860F971F0895BF92CF92DF92EF92FF9243
:101090000F931F93CF93DF937C016B018A01E901CA
:1010A0002417350720F4812F8901C42FD82F60E140
:1010B00071E0C7010E94C407D60114968D919C91DE
:1010C000159708171907D0F48C179D0708F4EC0141
:1010D000D601ED91FC911197EC0FFD1FB0801082AD
:1010E0004D915C91BA01600F711FC7010E94D90731
:1010F000D601ED91FC91EC0FFD1FB082C701DF918D
:10110000CF911F910F91FF90EF90DF90CF90BF9004
:101110000895FC0180819181009711F00C94210CBD
:1011200060E070E0CB01089508950E94EF030E94F3
:1011300094080E940702CFE9D5E00E946C02209734
:10114000E1F30E949F05F9CF0E94B8080C94A00912
:101150000E94990958F00E94920940F029F45F3FDB
:1011600029F00C94890951110C94D4090C948F091D
:101170000E94B10968F39923B1F3552391F3951BAC
:10118000550BBB27AA2762177307840738F09F5FA8
:101190005F4F220F331F441FAA1FA9F335D00E2E15
:1011A0003AF0E0E832D091505040E695001CCAF782
:1011B0002BD0FE2F29D0660F771F881FBB1F261745
:1011C00037074807AB07B0E809F0BB0B802DBF011C
:1011D000FF2793585F4F3AF09E3F510578F00C94EB
:1011E00089090C94D4095F3FE4F3983ED4F38695C3
:1011F00077956795B795F7959F5FC9F7880F911D0C
:101200009695879597F90895E1E0660F771F881FF7
:10121000BB1F621773078407BA0720F0621B730BAA
:10122000840BBA0BEE1F88F7E09508950E941D0904
:101230006894B1110C94D40908950E94B90988F0FA
:101240009F5798F0B92F9927B751B0F0E1F0660F8A
:10125000771F881F991F1AF0BA95C9F714C0B130CB
:1012600091F00E94D309B1E008950C94D309672F3F
:10127000782F8827B85F39F0B93FCCF386957795FA
:101280006795B395D9F73EF49095809570956195E3
:101290007F4F8F4F9F4F0895E89409C097FB3EF40E
:1012A00090958095709561957F4F8F4F9F4F9923B3
:1012B000A9F0F92F96E9BB279395F6958795779531
:1012C0006795B795F111F8CFFAF4BB0F11F460FFF1
:1012D0001BC06F5F7F4F8F4F9F4F16C0882311F049
:1012E00096E911C0772321F09EE8872F762F05C05D
:1012F000662371F096E8862F70E060E02AF09A95F8
:10130000660F771F881FDAF7880F9695879597F9EC
:10131000089597F99F6780E870E060E008959FEF77
:1013200080EC089500240A9416161706180609067C
:10133000089500240A94121613061406050608954B
:10134000092E0394000C11F4882352F0BB0F40F4D3
:10135000BF2B11F460FF04C06F5F7F4F8F4F9F4F13
:10136000089557FD9058440F551F59F05F3F71F095
:101370004795880F97FB991F61F09F3F79F08795FC
:101380000895121613061406551FF2CF4695F1DF85
:1013900008C0161617061806991FF1CF8695710515
:1013A000610508940895E894BB2766277727CB0149
:1013B00097F9089597FB072E16F4009407D077FD50
:1013C00009D00E94100A07FC05D03EF49095819543
:1013D0009F4F0895709561957F4F0895A1E21A2E51
:1013E000AA1BBB1BFD010DC0AA1FBB1FEE1FFF1FC9
:1013F000A217B307E407F50720F0A21BB30BE40B19
:10140000F50B661F771F881F991F1A9469F760955F
:101410007095809590959B01AC01BD01CF01089519
:10142000AA1BBB1B51E107C0AA1FBB1FA617B7070A
:1014300010F0A61BB70B881F991F5A95A9F7809526
:101440009095BC01CD010895EE0FFF1F0590F4911A
:10145000E02D0994CF93DF938230910510F482E060
:1014600090E0E091E801F091E90120E030E0C0E097
:10147000D0E0309711F14081518148175907C0F0F1
:101480004817590761F482819381209719F09B8353
:101490008A832BC09093E9018093E80126C021152F
:1014A000310519F04217530718F49A01BE01DF0104
:1014B000EF010280F381E02DDCCF2115310509F128
:1014C000281B390B2430310590F412968D919C9194
:1014D00013976115710521F0FB019383828304C08A
:1014E0009093E9018093E801FD01329644C0FD012B
:1014F000E20FF31F81939193225031092D933C9376
:101500003AC02091E6013091E701232B41F420916C
:101510000201309103013093E7012093E60120910D
:101520000001309101012115310541F42DB73EB77D
:101530004091040150910501241B350BE091E60117
:10154000F091E701E217F307A0F42E1B3F0B2817D9
:10155000390778F0AC014E5F5F4F2417350748F02C
:101560004E0F5F1F5093E7014093E60181939193E3
:1015700002C0E0E0F0E0CF01DF91CF9108950F933A
:101580001F93CF93DF93009709F48CC0FC0132972F
:10159000138212820091E8011091E90101151105F1
:1015A00081F420813181820F931F2091E6013091D7
:1015B000E7012817390779F5F093E701E093E60191
:1015C00071C0D80140E050E0AE17BF0750F412964A
:1015D0002D913C911397AD012115310509F1D901E8
:1015E000F3CF9D01DA013383228360817181860FFD
:1015F000971F8217930769F4EC0128813981260F20
:10160000371F2E5F3F4F318320838A819B819383D5
:101610008283452B29F4F093E901E093E80142C06D
:101620001396FC93EE931297ED01499159919E0107
:10163000240F351FE217F30771F480819181840F25
:10164000951F029611969C938E9382819381139697
:101650009C938E931297E0E0F0E0D80112968D9162
:101660009C911397009719F0F8018C01F6CF8D919A
:101670009C9198012E5F3F4F820F931F2091E601AE
:101680003091E7012817390769F4309729F410924F
:10169000E9011092E80102C0138212821093E7015F
:1016A0000093E601DF91CF911F910F910895A0E083
:1016B000B0E0EDE5FBE00C94710CEC01009721F437
:1016C000CB010E942A0AB8C0FC01E60FF71F9C015B
:1016D00022503109E217F30708F4ACC0D9010D918B
:1016E0001C91119706171707B0F00530110508F483
:1016F0009FC0C80104978617970708F499C0025045
:101700001109061B170B019311936D937C93CF0165
:101710000E94BF0A8DC05B01A01AB10A4C01800E65
:10172000911EA091E801B091E90140E050E0E12C68
:10173000F12C109709F44AC0A815B905D1F56D90A0
:101740007C901197630182E0C80ED11CCA14DB049F
:1017500080F1A3014A195B096A0182E0C80ED11C1D
:101760001296BC9012971396AC91B5E0CB16D104AB
:1017700040F0B282A38351834083D9016D937C935F
:101780000AC00E5F1F4FC301800F911FF9019183A3
:101790008083EB2DFA2FE114F10431F0D701139679
:1017A000FC93EE93129744C0F093E901E093E801B3
:1017B0003FC08D919C9111974817590708F4AC01CF
:1017C0007D0112960D90BC91A02DB3CF8091E601C2
:1017D0009091E70188159905E1F446175707C8F479
:1017E0008091000190910101009741F48DB79EB75F
:1017F0004091040150910501841B950BE817F907EE
:10180000C8F4F093E701E093E601F9017183608386
:101810000FC0CB010E942A0A7C01009759F0A80151
:10182000BE010E94480CCE010E94BF0AC70104C03D
:10183000CE0102C080E090E0CDB7DEB7EEE00C94C0
:101840008D0C1F93FC0199278827BC01E894119106
:101850001032E9F3193010F01E30C8F31B3251F08A
:101860001D3249F4689406C00E94580C610F711D26
:10187000811D911D119110531A30B0F33EF49095D3
:101880008095709561957F4F8F4F9F4F1F91089561
:10189000FB01DC0102C001900D9241505040D8F78D
:1018A0000895FB01DC0101900D920020E1F70895FD
:1018B000592F482F372F262F660F771F881F991F04
:1018C000660F771F881F991F620F731F841F951F54
:1018D000660F771F881F991F08952F923F924F928E
:1018E0005F926F927F928F929F92AF92BF92CF92B0
:1018F000DF92EF92FF920F931F93CF93DF93CDB7B9
:10190000DEB7CA1BDB0B0FB6F894DEBF0FBECDBF30
:1019100009942A88398848885F846E847D848C8401
:101920009B84AA84B984C884DF80EE80FD800C810A
:101930001B81AA81B981CE0FD11D0FB6F894DEBFED
:101940000FBECDBFED01089510E0C8E6D0E004C0A1
:10195000FE010E94240A2196C936D107C9F7F894DE
:02196000FFCFB7
:101962000000EA018000FF00010005000200010101
:101972000000000000F0052B0771058B057D05CEE8
:0219820005005E
:0200000002C03C
:00000001FF